:020000040800F2
:1000000038080020E901000821290008D527000848
:100010001D290008E30800088132000800000000E4
:10002000000000000000000000000000512900084E
:10003000350900080000000025290008692B000888
:10004000030200080302000803020008030200087C
:10005000030200080302000803020008030200086C
:10006000030200080302000803020008030200085C
:10007000E9080008F9080008030200080302000864
:10008000030200080302000803020008030200083C
:10009000030200080302000803020008030200082C
:1000A00003020008D92B000803020008030200081D
:1000B000030200080302000803020008030200080C
:1000C00003020008030200080302000803020008FC
:1000D000030200080302000803020008713200084E
:1000E00003020008030200080302000803020008DC
:1000F00003020008030200080302000803020008CC
:1001000003020008030200080302000803020008BB
:1001100003020008030200080302000803020008AB
:10012000030200080302000803020008030200089B
:1001300000F002F800F048F80AA090E8000C8244B1
:100140008344AAF10107DA4501D100F03DF8AFF28E
:10015000090EBAE80F0013F0010F18BFFB1A43F0A5
:10016000010318476C3800008C380000103A24BF97
:1001700078C878C1FAD8520724BF30C830C144BF0C
:1001800004680C607047000000230024002500264E
:10019000103A28BF78C1FBD8520728BF30C148BFEA
:1001A0000B607047642900F07B80002070471FB50A
:1001B00000F038FB04000020002103F0C5F8401CCB
:1001C00060601FBD10B510BD00F007FB1146FFF7C2
:1001D000EEFF03F07BF800F037FB03B4FFF7F2FF0C
:1001E00003BC00F077FB000009488047094800473E
:1001F000FEE7FEE7FEE7FEE7FEE7FEE7FEE7FEE7D7
:10020000FEE7FEE704480549054A064B7047000033
:10021000D72B0008310100083802002038080020E0
:1002200038040020380400200FB41CB5074B06AA80
:100230007B4469460090059800F001FA0020694669
:1002400000F010FA1CBC5DF814FB00003104000043
:1002500070B5044685690068C10601D5302600E006
:100260002026C00707D070BDD4E901213046904751
:10027000206A401C20626D1EF6D570BD70B5044624
:1002800085690078C00707D170BDD4E9012120201D
:100290009047206A401C20626D1EF6D570BD00009C
:1002A0002DE9F0410646002410687529314616A54F
:1002B00010D0AFF30080002802DA404213A507E017
:1002C00031688A0701D512A502E0490704D511A5B6
:1002D000012401E0AFF3008000210A2206F1240787
:1002E00009E0B0FBF2FCB0FBF2F302FB1C00303083
:1002F00078541846491C0028F3D123462A46304634
:10030000BDE8F04100F03CB9000000002D00000005
:100310002B000000200000002DE9F05F8946044614
:100320004FF0000ADFF824B1FB44C0F820A02046BB
:10033000E168884700287DD0252806D0D4E901212E
:100340009047206A401C2062F1E700255F46204666
:10035000E16888472028064607DB312E05D2B81908
:1003600010F8200C08B10543F1E7A80701D525F0E6
:100370000405C4F81CA00027C4F818A02A2E09D030
:10038000304602F09BFF38B304EB8708303EC8F8D4
:10039000186019E059F8041B204604EB87029161AC
:1003A000E1688847012F064618D1E069002820DA65
:1003B00025F020051DE0D8F8180000EB800006EBC2
:1003C00040003038C8F818002046E16888470646E3
:1003D00002F074FF0028EED1012F0AD02E2E08D192
:1003E0002046E16888477F1C0646022F45F020051D
:1003F000C4DBA069002803DA404245F00105A06192
:10040000E80701D025F01005A6B1A6F14100192892
:1004100002D8203645F400654A463146204625601C
:100420004D46FFF7BFFE60B1012807D0ED1D25F056
:10043000070000E007E000F1080978E705F104098A
:1004400075E730467AE7206ABDE8F09F90360000F5
:1004500070B5064600F090F80468054630460A225A
:10046000002100F004F92C6070BD10B5203AC0F0F6
:100470000B80B1E81850203AA0E81850B1E81850A5
:10048000A0E81850BFF4F5AF5FEA027C24BFB1E8E2
:100490001850A0E8185044BF18C918C0BDE8104053
:1004A0005FEA827C24BF51F8043B40F8043B08BF5C
:1004B0007047D20728BF31F8023B48BF11F8012B23
:1004C00028BF20F8023B48BF00F8012B70474FF0CF
:1004D000000200B5134694469646203922BFA0E894
:1004E0000C50A0E80C50B1F12001BFF4F7AF0907A0
:1004F00028BFA0E80C5048BF0CC05DF804EB890091
:1005000028BF40F8042B08BF704748BF20F8022BD3
:1005100011F0804F18BF00F8012B704710B504464A
:1005200010F0030F08BF11F0030F40F015804FF0DB
:10053000013E121FC0F20E8051F8043BA3EB0E0CDB
:100540002CEA030C1CEACE1C08BF40F8043BF0D098
:10055000A1F1040102F10402521E08DB11F8013B73
:10056000002B00F8013BF7D1114600F0B8F8204607
:1005700010BD70477047704700487047D401002095
:100580002DE9F0470D4699469246044600F12408AD
:100590000168880604D5E06921F01001216000E0BF
:1005A0000120A84201DD471B00E00027A1697A195C
:1005B00002EB0900081AA0612078C00602D4204688
:1005C000FFF746FE002608E0D4E901211AF80600EC
:1005D0009047206A401C761C20624E45F4DB207850
:1005E000C0060AD52046FFF733FE06E0D4E9012114
:1005F00030209047206A401C2062381EA7F1010776
:10060000F4DC07E0D4E9012118F805009047206ADE
:10061000401C2062281EA5F10105F3DC2046FFF7EF
:100620002DFE2078000602D50220BDE8F0870120CB
:10063000FBE7000001694A1C02610878704700B5B9
:100640008FB0CDE901310021059105497944CDE90B
:10065000031011466846FFF75FFE0FB000BD0000B3
:10066000E5FFFFFF0A6802F8010B0A6070472DE9F9
:10067000F04791460F4680460446002614F8015B79
:100680002DB100F053F80068405DC007F6D12B2D66
:1006900002D02D2D18D0641E4A463946204600F05F
:1006A0004DF827B13968A14201D1C7F800804FF059
:1006B000020471050BD54042002803DDFFF75CFF03
:1006C0000460A007BDE8F08746F48066E4E70028F0
:1006D000F8DAFFF751FF04606FF00040F2E74FF0E7
:1006E00000020429C0F0128010F0030C3FF4F1AEB8
:1006F000CCF1040CBCF1020F18BF00F8012BA8BF0D
:1007000020F8022BA1EB0C01FFF7E3BE5FEAC17CEE
:1007100024BF00F8012B00F8012B48BF00F8012B83
:100720007047000000487047D401002010B500F069
:1007300079F8001D10BD00BF112C00002DE9F05FFD
:10074000824615468B4600270AF10104B946007817
:10075000302801D09DB113E014F8010B012778284F
:1007600003D0582801D045B10AE00DB1102D07D1B2
:10077000002714F8010B102502E0082500E00A25E7
:100780000026B0460EE005FB080005FB06F1012738
:100790001FFA80F801EB1046B6F5803F00D3B9464A
:1007A00014F8010B294600F041F80028EBDABBF100
:1007B000000F05D00FB1641E00E05446CBF8004096
:1007C000B9F1000F06D0FFF7D7FE02210160C81E65
:1007D000BDE8F09F48EA0640FAE77546FFF7A2FF3A
:1007E000AE4605006946534620F00700854618B01E
:1007F00020B5FFF707FDBDE820404FF000064FF0A1
:1008000000074FF000084FF0000B21F00701AC4645
:10081000ACE8C009ACE8C009ACE8C009ACE8C00964
:100820008D46704700487047F40100203A2800D2F6
:10083000303820F02002412A01D3A2F1370088424B
:1008400001D34FF0FF3070470446AFF300802046DD
:10085000FFF7C3FC4FF0013C50F8042B51F8043B68
:100860009A4221D1A2EB0C03934313EACC1317D184
:1008700050F8042B51F8043B9A4215D1A2EB0C031B
:10088000934313EACC130BD150F8042B51F8043BDB
:100890009A4209D1A2EB0C03934313EACC13DBD0A9
:1008A0004FF00000704700BFD01A01BAB1FA81F1D1
:1008B00001F0180122FA01F0CB40C1F12001DBB2B6
:1008C000C0B2C01A2CFA01F3D11A914311EAC31134
:1008D000E6D1704701491820ABBEFEE726000200B2
:1008E000704700BFFEE7000010B5024800F034F981
:1008F00010BD00009001002010B5024800F02CF956
:1009000010BD00004C01002030B590F8405001248B
:10091000AC40C56B6C60046863604468102C04D103
:100920000468A2600468E16003E00468A1600468F0
:10093000E26030BD704772B600BFFEE738B50446CE
:10094000002000900422611D6846FFF7E7FD68461D
:10095000FFF77EFD85B2284638BD0146002291F89A
:100960002100022808D00420886300BF002081F8FD
:10097000200000BF012070470868006820F00E00CA
:100980000B6818600868006820F001000B681860A8
:1009900091F8403001209840CB6B5860012081F8DD
:1009A000210000BF002081F8200000BF1046E2E7D0
:1009B00070B50446002594F82100022803D00420D5
:1009C000A0630125C1E02068006820F00E002168C6
:1009D00008602068006820F00100216808605C4918
:1009E0002068884252D95A4978392068884201D112
:1009F000012047E0564964392068884201D110201F
:100A000040E0534950392068884201D1801539E0CF
:100A10004F493C392068884201D1801432E04C496A
:100A200028392068884202D14FF480302AE04849B2
:100A300014392068884202D14FF4801022E04449E2
:100A40002068884201D140041CE042492068884265
:100A500001D1012016E03F4914312068884201D1BC
:100A600010200FE03B4928312068884201D18015D1
:100A700008E038493C312068884201D1801401E007
:100A80004FF480303349091F086051E0304978390C
:100A90002068884201D1012047E02D49643920684F
:100AA000884201D1102040E029495039206888420D
:100AB00001D1801539E026493C392068884201D1AE
:100AC000801432E0224928392068884202D14FF44C
:100AD00080302AE01E4914392068884202D14FF440
:100AE000801022E01A492068884201D140041CE0AD
:100AF00018492068884201D1012016E015491431B7
:100B00002068884201D110200FE012492831206866
:100B1000884201D1801508E00E493C3120688842A6
:100B200001D1801401E04FF48030094980394860D8
:100B3000012084F8210000BF002084F8200000BFBD
:100B4000606B10B12046616B8847284670BD00007D
:100B5000800002400804024070B50446E06B05685E
:100B60002068066894F84010042088402840002837
:100B700075D006F004000028FAD02068006800F064
:100B8000200028B92068006820F00400216808606F
:100B9000D5492068884254D9D34978392068884299
:100BA00001D1042049E0D04964392068884201D14C
:100BB000402042E0CC4950392068884201D10015DC
:100BC0003BE0C9493C392068884202D14FF480405B
:100BD00033E0C54928392068884202D14FF480208B
:100BE0002BE0C14914392068884202D14FF48000BB
:100BF00023E0BD492068884201D1C0041DE0BB4903
:100C00002068884201D1042017E0B84914312068D7
:100C1000884201D1402010E0B44928312068884240
:100C200001D1001509E0B1493C312068884202D168
:100C30004FF4804001E04FF48020AC49091F086068
:100C400054E0A94978392068884201D104204AE05B
:100C5000A54964392068884202D1402043E04CE035
:100C6000A14950392068884201D100153BE09E49D6
:100C70003C392068884202D14FF4804033E09A49E1
:100C800028392068884202D14FF480202BE0964911
:100C900014392068884202D14FF4800023E0924941
:100CA0002068884201D1C0041DE090492068884234
:100CB00001D1042017E08D4914312068884201D108
:100CC000402010E0894928312068884201D1001570
:100CD00009E086493C312068884202D14FF48040C7
:100CE00001E04FF48020804980394860E06A0028A4
:100CF00002D02046E16A8847F4E094F840100220D0
:100D000088402840002871D006F002000028FAD060
:100D10002068006800F0200040B92068006820F0DA
:100D20000A0021680860012084F821006E492068CB
:100D3000884254D96C4978392068884201D1022010
:100D400049E0694964392068884201D1202042E0A5
:100D5000654950392068884201D140153BE062491D
:100D60003C392068884202D14FF4005033E05E499C
:100D700028392068884202D14FF400302BE05A49CC
:100D800014392068884202D14FF4001023E05649FC
:100D90002068884201D180041DE0544920688842BF
:100DA00001D1022017E0514914312068884201D155
:100DB000202010E04D4928312068884201D140159B
:100DC00009E04A493C312068884202D14FF4005082
:100DD00001E04FF400304549091F086054E04249E2
:100DE00078392068884202D102204AE057E03E4923
:100DF00064392068884201D1202042E03A495039C4
:100E00002068884201D140153BE037493C392068D1
:100E1000884202D14FF4005033E03349283920682A
:100E2000884202D14FF400302BE02F49143920685A
:100E3000884202D14FF4001023E02B4920688842F9
:100E400001D180041DE029492068884201D1022097
:100E500017E0264914312068884201D1202010E093
:100E6000224928312068884201D1401509E01F49F4
:100E70003C312068884202D14FF4005001E04FF429
:100E8000003019498039486000BF002084F82000F4
:100E900000BFA06A30B32046A16A884722E094F8D8
:100EA0004010082088402840E0B106F00800C8B192
:100EB0002068006820F00E002168086094F8401057
:100EC00001208840E16B48600120A06384F8210084
:100ED00000BF002084F8200000BF206B10B1204626
:100EE000216B884770BD000080000240080402406A
:100EF0000146002209B9012070471E4B086898423C
:100F00000BD21D4B0868C01A1423B0FBF3F080000D
:100F1000086419480838C8630AE0164B0868C01A04
:100F20001423B0FBF3F08000086412480838C8634B
:100F3000022081F821000868026843F6F0708243BD
:100F4000D1E901031843CB6818430B6918434B6977
:100F500018438B691843CB69184302430868026041
:100F600000208863012081F82100002081F8200002
:100F700000BFC1E708040240080002402DE9F0412B
:100F800004460D4616461F464FF0000800BF94F871
:100F90002000012802D10220BDE8F081012084F860
:100FA000200000BF94F8210001282CD1022084F8F1
:100FB00021000020A0632068006820F00100216863
:100FC00008603B46324629462046FFF79DFCE06A12
:100FD00030B12068006840F00E00216808600BE026
:100FE0002068006820F0040021680860206800681C
:100FF00040F00A00216808602068006840F00100A5
:101000002168086006E000BF002084F8200000BFCF
:101010004FF002084046BFE72DE9F847024600239B
:101020009C467BE14FF0010808FA03F4D1F80080F8
:1010300008EA0400A0427DD1DFF8F4A2D1F80480D0
:10104000A8EB0A09D0453AD014DCB8F1030F50D010
:1010500009DCB8F1000F31D0B8F1010F1CD0B8F1A4
:10106000020F49D120E0B8F1110F18D0B8F1120FDA
:1010700042D11EE0B9F5881F25D006DCB9F5803FC6
:1010800020D0B9F5801F37D11AE0B9F5001F18D06C
:10109000B9F5041F30D117E0D1F80CC02DE0D1F81C
:1010A0000C8008F1040C28E0D1F80C8008F1080C41
:1010B00023E0D1F80C8008F10C0C1EE000BF00BF4B
:1010C00000BF00BF00BF00BFD1F80880B8F1000F1B
:1010D00002D14FF0040C0BE0D1F80880B8F1010FF9
:1010E00003D14FF0080C146102E04FF0080C54617A
:1010F00003E04FF0000C00E000BF00BFFF2801D864
:10110000904601E002F104084646FF2802D84FEA63
:10111000830803E0A3F108084FEA88084746D6F899
:1011200000804FF00F0909FA07F928EA09080CFABC
:1011300007F900E07AE048EA0908C6F80080D1F82B
:10114000048008F08058B8F1805F6FD100BFDFF8ED
:10115000E481D8F8188048F00108DFF8D891C9F880
:101160001880C846D8F8188008F00108CDF800802B
:1011700000BF00BF4FEAB9384FEA930958F8295029
:101180004FEA83784FEA18794FF00F0808FA09F808
:1011900025EA0805DFF8A081424502D14FF000089A
:1011A00024E0DFF89881424502D14FF001081DE0AC
:1011B000DFF88C81424502D14FF0020816E0DFF8DB
:1011C0008481424502D14FF003080FE0DFF87881B7
:1011D000424502D14FF0040808E0DFF87081424533
:1011E00002D14FF0050801E04FF006084FEA83797D
:1011F0004FEA197908FA09F848EA0505DFF850813D
:101200004FEA930948F82950D1F8048008F480186F
:10121000B8F5801F0BD1DFF83C81D8F8008048EA90
:101220000008DFF83091C9F800800AE075E0DFF8C7
:101230002481D8F8008028EA0008DFF81891C9F85E
:101240000080D1F8048008F40018B8F5001F0ED112
:10125000DFF8008108F10408D8F8008048EA0008A7
:10126000DFF8F09009F10409C9F800800DE0DFF81B
:10127000E48008F10408D8F8008028EA0008DFF8C4
:10128000D49009F10409C9F80080D1F8048008F469
:101290000038B8F5003F0ED1DFF8B880A8F1040897
:1012A000D8F8008048EA0008DFF8A890A9F10409FE
:1012B000C9F800800DE0DFF89C80A8F10408D8F898
:1012C000008028EA0008DFF88C90A9F10409C9F829
:1012D0000080D1F8048008F48038B8F5803F0ED142
:1012E000DFF87080A8F10808D8F8008048EA000804
:1012F000DFF86090A9F10809C9F800800DE0DFF877
:101300005480A8F10808D8F8008028EA0008DFF81F
:101310004490A9F10809C9F800805B1CD1F800804D
:1013200028FA03F8B8F1000F7FF47CAEBDE8F88727
:10133000000011100010024000080140000C0140A4
:10134000001001400014014000180140001C014041
:10135000080001400804014001480068704700008F
:10136000080000200348006803490978084401493F
:1013700008607047080000201000002010B50848E1
:10138000006840F0100006490860032000F0A8F84B
:101390000F2000F007F800F02BF8002010BD00002F
:1013A0000020024070B504460E4800784FF47A7170
:1013B000B1FBF0F00C490968B1FBF0F5284600F0EC
:1013C000F9FB08B1012070BD102C07D20022214684
:1013D000501E00F047F80548046001E00120F2E7E4
:1013E0000020F0E710000020140000200C00002076
:1013F00008B500BF1148806940F001000F498861BD
:101400000846806900F00100009000BF00BF00BFE7
:101410000846C06940F08050C8610846C06900F0C5
:101420008050009000BF00BF00BF0549486820F011
:10143000E06040F00070486000BF08BD001002404E
:101440000000014001460846002809DB00F01F03A8
:1014500001229A4043099B0003F1E023C3F80021D5
:1014600000BF70472DE9F05F80460D461646002705
:1014700001F008FF074639462A46334601F00700C7
:10148000C0F1070ABAF1040F02D94FF0040A01E0D3
:10149000C0F1070AD14600F1040ABAF1070F02D2DF
:1014A0004FF0000A01E0A0F1030AD4464FF0010A10
:1014B0000AFA09FAAAF1010A0AEA020A0AFA0CFA75
:1014C0004FF0010B0BFA0CFBABF1010B0BEA030B1A
:1014D0004AEA0B042146404601F0DCFEBDE8F09FDD
:1014E00000BF00F00702064B19684FF6FF031940D2
:1014F000044B0B4343EA0221014B196000BF7047C4
:101500000CED00E00000FA0570B504460D460CB97C
:10151000012070BD5A48006800F00700A8420ED2B2
:101520005748006820F007002843554908600846DE
:10153000006800F00700A84201D00120E9E7207808
:1015400000F0020002281DD1207800F004000428D9
:1015500005D14C48406840F4E0604A494860207832
:1015600000F00800082805D14648406840F4605063
:10157000444948604348406820F0F000A1680843AF
:1015800040494860207800F0010078B36068012885
:1015900006D13C48006800F4003090B90120B8E75B
:1015A0006068022806D13748006800F0007040B932
:1015B0000120AEE73348006800F0020008B90120BE
:1015C000A7E73048406820F00300616808432D49D0
:1015D0004860FFF7C1FE064609E0FFF7BDFE801B2D
:1015E00041F28831884202D9032092E707E025487A
:1015F000406800F00C006168B0EB810FEDD120482D
:10160000006800F00700A8420ED91D48006820F0CD
:10161000070028431A4908600846006800F00700E0
:10162000A84201D0012074E7207800F004000428CB
:1016300007D11448406820F4E060E168084311498C
:101640004860207800F00800082808D10D4840685C
:1016500020F46050216940EAC1000A49486000F066
:101660003FF808494968C1F30311074A515CC84073
:101670000649086006480068FFF794FE002048E726
:101680000020024000100240A4390008140000208D
:101690000C00002001480068704700001400002082
:1016A00000B5FFF7F7FF04494968C1F30221034A77
:1016B000515CC84000BD000000100240B439000871
:1016C00000B5FFF7E7FF04494968C1F3C221034AA7
:1016D000515CC84000BD000000100240B439000851
:1016E00070B500210022002400230020134D6968FA
:1016F00001F00C05F5B1042D02D0082D19D101E03F
:101700000F4819E00F4DC1F38346AB5D01F48035FE
:1017100055B10A4D6D68C5F340450B4E725D084DDD
:101720005D43B5FBF2F402E0084D03FB05F42046EF
:1017300002E000BF024800BF00BF70BD00100240C1
:1017400000127A0092390008A239000800093D0011
:10175000F8B504460CB90120F8BD207800F001006E
:10176000002878D0F848406800F00C0004280CD01D
:10177000F548406800F00C00082811D1F248406894
:1017800000F48030B0F5803F0AD1EF48006800F4E3
:10179000003000285FD0606800285CD10120DBE7C2
:1017A00000BF6068B0F5803F06D1E748006840F4AC
:1017B0008030E549086028E0606858B9E248006870
:1017C00020F48030E04908600846006820F480205A
:1017D00008601AE06068B0F5A02F0BD1DA48006805
:1017E00040F48020D84908600846006840F4803002
:1017F00008600AE0D448006820F48030D2490860CC
:101800000846006820F48020086000BF606888B146
:10181000FFF7A2FD054606E0FFF79EFD401B64288A
:1018200001D9032098E7C848006800F40030002878
:10183000F2D010E0FFF790FD054606E0FFF78CFDC3
:10184000401B642801D9032086E7BF48006800F4E4
:1018500000300028F2D1207800F00200022857D191
:10186000B948406800F00C0050B1B748406800F03B
:101870000C00082818D1B448406800F4803098B9AA
:10188000B148006800F0020020B12069012801D0B1
:10189000012061E7AC48006820F0F800616940EA87
:1018A000C100A949086033E02069E8B10120A749D7
:1018B0000860FFF751FD054606E0FFF74DFD401BB0
:1018C000022801D9032047E79F48006800F0020082
:1018D0000028F2D09C48006820F0F800616940EAD6
:1018E000C1009949086013E0002098490860FFF79B
:1018F00033FD054606E0FFF72FFD401B022801D906
:10190000032029E79048006800F002000028F2D187
:10191000207800F0080008282DD1A069B8B1012076
:101920008B490860FFF718FD054606E0FFF714FD38
:10193000401B022801D903200EE78348406A00F0CB
:1019400002000028F2D0012000F0EEFF13E000209A
:101950007F490860FFF700FD054606E0FFF7FCFC45
:10196000401B022801D90320F6E67748406A00F0C0
:1019700002000028F2D1207800F00400042873D17E
:1019800000277148C06900F0805070B900BF6E48F0
:10199000C06940F080506C49C8610846C06900F0D9
:1019A0008050009000BF00BF01276A48006800F423
:1019B0008070B0B96748006840F48070654908607D
:1019C000FFF7CAFC054606E0FFF7C6FC401B64288B
:1019D00001D90320C0E65F48006800F48070002849
:1019E000F2D000BFE068012806D15748006A40F0F5
:1019F00001005549086227E0E06858B95248006A7A
:101A000020F00100504908620846006A20F00400F6
:101A1000086219E0E06805280BD14B48006A40F0E5
:101A20000400494908620846006A40F00100086263
:101A30000AE04548006A20F0010043490862084670
:101A4000006A20F00400086200BFE068A0B1FFF760
:101A500083FC054609E0FFF77FFC401B41F288311B
:101A6000884202D9032077E622E03748006A00F076
:101A700002000028EFD012E0FFF76EFC054608E0F8
:101A8000FFF76AFC401B41F28831884201D90320EC
:101A900062E62D48006A00F002000028F0D1012F14
:101AA00005D12948C06920F080502749C86100BF8E
:101AB000E069C8B32448406800F00C00082860D0F2
:101AC000E069022848D1002020490866FFF744FC5D
:101AD000054606E0FFF740FC401B022801D9032021
:101AE0003AE61948006800F000700028F2D1206A38
:101AF000B0F5803F07D11448406820F40030A16859
:101B0000084311494860D4E9080108430E4949686F
:101B100021F4741108430C49486001200B49086600
:101B2000FFF71AFC054607E03DE0FFF715FC401BF8
:101B3000022801D903200FE60348006800F0007076
:101B40000028F2D02FE000000010024000004242C6
:101B50008004424200700040002014490866FFF7EC
:101B6000FBFB054606E0FFF7F7FB401B022801D907
:101B70000320F1E50E48006800F000700028F2D163
:101B800011E0E069012800D1E6E50948466806F45D
:101B90008031206A814204D106F47011606A81426A
:101BA00001D00120D8E50020D6E500000000424227
:101BB0000010024070B504462546681EB0F1807FD3
:101BC00001D301200FE0681E4FF0E02148610F2192
:101BD0004FF0FF3001F05EFB00204FF0E021886104
:101BE00007200861002070BD7047704730B502467D
:101BF0000B4600BF92F83C00012801D1022030BD05
:101C0000012082F83C0000BF022082F83D001068ED
:101C100044681068816824F07004186804431068F0
:101C20004460144D1068A84213D0134D1068A842A8
:101C30000FD01068B0F1804F0BD0104D1068A84243
:101C400007D00F4D1068A84203D00E4D1068A8426F
:101C500005D121F08001586801431068816001209E
:101C600082F83D0000BF002082F83C0000BF00BFAA
:101C7000C5E70000002C0140003401400004004092
:101C800000080040000C004010B504460CB90120CB
:101C900010BD94F83D0028B9002084F83C0020468F
:101CA00000F026F8022084F83D00211D206800F095
:101CB0009BFF012084F8460000BF84F83E0001210C
:101CC0003F200155402001554120015500BF00BF74
:101CD000012084F84200432001554420015545204D
:101CE000015500BF012084F83D000020D0E700002E
:101CF00038B504460D492068884215D100BF0C480C
:101D0000806940F400600A4988610846806900F4EF
:101D10000060009000BF00BF002211461920FFF7AD
:101D2000A1FB1920FFF78EFB38BD0000002C0140FD
:101D300000100240014691F83D00012801D0012029
:101D40007047022081F83D000868C06840F001003B
:101D50000B68D860164B0868984213D0154B08687A
:101D600098420FD00868B0F1804F0BD0124B086832
:101D7000984207D0114B0868984203D0104B08686E
:101D800098420CD10868806800F00702062A0CD03F
:101D90000868006840F001000B68186005E00868FA
:101DA000006840F001000B6818600020C8E70000E0
:101DB000002C0140003401400004004000080040B5
:101DC000000C00402DE9F04104460D46002700BFFD
:101DD00094F83C00012802D10220BDE8F0810120E6
:101DE00084F83C0000BF022084F83D00206886682B
:101DF00026F0770626F47F462068866028685028FB
:101E000033D00CDC202850D004DC00284BD0102824
:101E100051D149E0302849D040284CD139E06028E0
:101E20002DD0702807D0B0F5805F03D0B0F5005FEB
:101E300041D10DE041E0D5E902136A68206800F065
:101E400021FF2068866846F077062068866034E0C7
:101E5000D5E902136A68206800F014FF20688068E2
:101E600040F480402168886027E0EA68696820685B
:101E700000F01CFF5021206800F00FFF1DE0EA6811
:101E80006968206800F025FF6021206800F005FFE8
:101E900013E0EA686968206800F008FF40212068C4
:101EA00000F0FBFE09E000BF00BF00BF296820680A
:101EB00000F0F3FE01E0012700BF00BF012084F81D
:101EC0003D0000BF002084F83C0000BF384684E796
:101ED000704710B5044620680069C0F34000D8B1CF
:101EE0002068C068C0F34000B0B16FF00200216804
:101EF0000861012020772068806900F0030018B194
:101F00002046FFF7E5FF05E0204600F0ADF820464B
:101F100000F0ABF80020207720680069C0F3800053
:101F2000D8B12068C068C0F38000B0B16FF0040081
:101F300021680861022020772068806900F44070E1
:101F400018B12046FFF7C4FF05E0204600F08CF8EA
:101F5000204600F08AF80020207720680069C0F34E
:101F6000C000D8B12068C068C0F3C000B0B16FF045
:101F7000080021680861042020772068C06900F00B
:101F8000030018B12046FFF7A3FF05E0204600F04C
:101F90006BF8204600F069F800202077206800697F
:101FA000C0F30010D8B12068C068C0F30010B0B111
:101FB0006FF0100021680861082020772068C06950
:101FC00000F4407018B12046FFF782FF05E020467C
:101FD00000F04AF8204600F048F8002020772068FA
:101FE000006900F0010058B12068C06800F00100ED
:101FF00030B16FF0010021680861204600F036F82A
:1020000020680069C0F3C01058B12068C068C0F3F0
:10201000C01030B16FF08000216808612046FFF7E2
:10202000E3FD20680069C0F3801058B12068C068E3
:10203000C0F3801030B16FF0400021680861204685
:1020400000F09EF820680069C0F3401058B1206885
:10205000C068C0F3401030B16FF020002168086103
:102060002046FFF7C2FD10BD7047704710B58CB019
:1020700004463E48844276D13D48007888B1012824
:1020800004D0022840D0032868D132E02822394900
:102090006846FEF7EAF9374810380FC800F05AFCD6
:1020A00060E03548007870B932481038008B28223B
:1020B00030490A906846FEF7D8F92E4810380FC804
:1020C00000F022FD11E02C48007801280DD12948AC
:1020D0001038C069282227490A906846FEF7C5F9DA
:1020E000244810380FC800F0C5FC032020490870B0
:1020F00038E0282221496846FEF7B7F91F48103812
:102100000FC800F027FC2DE01B48007870B91B4871
:102110001038008B282219490A906846FEF7A5F965
:10212000164810380FC800F0EFFC11E01248007894
:1021300001280DD111481038C06928220F490A9092
:102140006846FEF792F90D4810380FC800F092FC6F
:1021500001200749087005E005E0FFE70120044978
:10216000087000BF00BF0CB010BD0000BC00002014
:102170000000002028000020010000206000002056
:1021800070477047704700002DE9F84F04462068FB
:1021900005682068C668206847694FF00009CA468C
:1021A00005F00F09B9F1000F0AD105F0200038B190
:1021B00006F0200020B1204600F0C9FEBDE8F88FEF
:1021C000B9F1000F7BD007F0010018B906F4907048
:1021D000002874D005F0010030B106F4807018B109
:1021E000606C40F00100606405F0040030B107F05D
:1021F000010018B1606C40F00200606405F002005C
:1022000030B107F0010018B1606C40F00400606468
:1022100005F0080048B106F0200010B907F00100F1
:1022200018B1606C40F008006064606C002845D014
:1022300005F0200028B106F0200010B1204600F083
:1022400086FE20684069C0F3801A606C00F00800C8
:1022500010B9BAF1000F2CD0204600F01FFE206804
:10226000406900F0400000B300BF00BF2168143196
:1022700051E8001F21F040002168143141E80002BC
:10228000002AF3D100BFE06B50B17748E16B48639F
:10229000E06BFEF78DFB88B1E06B416B88470DE08A
:1022A0002046FFF76FFF09E009E02046FFF76AFFCD
:1022B00004E02046FFF766FF002060647EE7206BA5
:1022C000012877D105F01000002873D006F0100027
:1022D0000028FAD000BF002000902068006800901D
:1022E00020684068009000BF00BF2068406900F08F
:1022F000400000285FD0E06B006840681FFA80F85B
:10230000B8F1000F55D0A08D404552DDA4F82E80C5
:10231000E06B8069202843D000BF00BF21680C31EA
:1023200051E8001F21F4807021680C3141E800025F
:10233000002AF3D100BF00BF00BF2168143151E86B
:10234000001F21F001002168143141E80002002A39
:10235000F3D100BF00BF00BF2168143151E8001F56
:1023600021F040002168143141E80002002AF3D135
:1023700000BF202084F842000020206300BF00BF7F
:1023800021680C3151E8001F21F0100021680C3148
:1023900041E80002002AF3D100BFE06BFEF7DDFA4E
:1023A00002206063A08DE28D801A81B22046FFF783
:1023B000E8FE03E742E0A08DE18D401A1FFA80F8A5
:1023C000E08DD0B3B8F1000F37D000BF00BF216857
:1023D0000C3151E8001F21F4907021680C3141E864
:1023E0000002002AF3D100BF00BF00BF21681431F2
:1023F00051E8001F21F001002168143141E800027A
:10240000002AF3D100BF202084F84200002020637E
:1024100000BF00BF21680C3151E8001F21F01000FF
:1024200021680C3141E80002002AF3D100BF0220EC
:10243000606341462046FFF7A4FEBFE605F080003A
:1024400030B106F0800018B1204600F0E1FEB5E69C
:1024500005F0400030B106F0400018B1204600F011
:1024600053FDABE600BFA9E6FB2C000810B50446FF
:102470000CB9012010BDA06900B100E000BF94F8C4
:10248000410028B9002084F84000204600F02AF8D6
:10249000242084F841002068C06820F4005021689E
:1024A000C860204600F0D2FD2068006920F490400A
:1024B000216808612068406920F02A00216848618D
:1024C0002068C06840F400502168C8600020606443
:1024D000202084F8410084F842000020606300BF9F
:1024E000C8E7000010B586B00446002002900390B3
:1024F000049005903D492068884275D100BF3C4852
:10250000C06940F480203A49C8610846C06900F4B7
:102510008020019000BF00BF00BF0846806940F0E6
:10252000100088610846806900F01000019000BF2B
:1025300000BF08150290022003900320059002A915
:102540002C48FEF769FD4FF40060029000200390D4
:102550000120049002A92748FEF75EFD00BF26492E
:10256000486820F0300040F0E06040F01000486023
:1025700000BF22482249086000204860002120480E
:1025800081608021C1600021016141618161C1617F
:10259000FEF7AEFC08B1FEF7CEF900BF1848E063C5
:1025A000446200BF1548143816490860102048607E
:1025B0000021144881608021C160002101614161D6
:1025C0008161C161FEF794FC08B1FEF7B4F900BF68
:1025D0000C48A063446200BF002211462720FEF78A
:1025E00041FF2720FEF72EFF06B010BD0048004037
:1025F0000010024000100140000001403000024085
:102600004C0100209001002070B504460D4616468E
:1026100094F8420020280BD105B10EB9012070BDFD
:102620000020206332462946204600F08DFDF6E763
:102630000220F4E710B504463B48844272D13B487F
:102640000078012802D039480078A0BB38480078CB
:1026500070B9384890F82100232809D10120344965
:1026600008700922334922312F48FFF7CDFF59E086
:102670002F480078012814D12E480B30A0F10A0110
:102680000A6A02624A6A4262098D0185002028496D
:10269000087026490870012227492348FFF7B4FF34
:1026A00040E00020224908700122224921311E48C1
:1026B000FFF7AAFF36E0FFE72048007878B91E4808
:1026C000213890F82100232809D101201B490870E6
:1026D00009221949491C1448FFF796FF22E01748C0
:1026E0000078012816D114481638A0F10A010A6AA8
:1026F00002624A6A4262098D018500200F49087012
:1027000002200A49087001220A4921310648FFF7D0
:102710007BFF07E0002009490870012206490248B2
:10272000FFF772FF10BD0000040100200000002030
:102730000300002018000020710000200400002089
:1027400070470000F7B50446154694F8410020286C
:1027500036D1019800B10DB90120FEBD019820626B
:10276000A584E58400206064212084F84100154898
:10277000A16B88621448A16BC8621448A16B0863FE
:102780000020A16B486301AE23681A1D31682B46F7
:10279000A06BFEF7F3FB6FF040002168086000BFFC
:1027A00000BF2168143151E8001F41F0800021680A
:1027B000143141E80002002AF3D100BF0020CCE729
:1027C0000220CAE7372E00088F2E00080F2D0008C0
:1027D0007047704700BFFEE708B500BF0E4840696C
:1027E00040F001000C4948610846406900F00100D2
:1027F000009000BF00BF002211460C20FEF732FE01
:102800000C20FEF71FFE002211460D20FEF72AFEC7
:102810000D20FEF717FE08BD0010024008B500BFEE
:102820001348806940F0200011498861084680699A
:1028300000F02000009000BF00BF00BF0846806984
:1028400040F0040088610846806900F004000090B0
:1028500000BF00BF00BF0846806940F010008861DB
:102860000846806900F01000009000BF00BF08BD5E
:102870000010024000B587B000200390049005903E
:10288000069001900290154815490860472048605D
:1028900000211348816042F20F71C1600021016183
:1028A000416180218161FFF7EFF908B1FEF743F83C
:1028B0004FF48050039003A90948FFF783FA08B149
:1028C000FEF739F800200190029001A90448FFF7B3
:1028D0008DF908B1FEF72FF807B000BD002C0140BC
:1028E000BC00002010B50B480B4908604FF4E130E4
:1028F0004860002108488160C16001610C2141618C
:1029000000218161C161FFF7B1FD08B1FEF713F845
:1029100010BD0000004800400401002000BFFEE799
:1029200000BFFEE77047000008B508490968C908FC
:102930004FF47A72B1FBF2F14143009100BF00BF46
:1029400000994A1E00920029F9D108BD1400002008
:10295000704700000FB410B59DF8082005A1084885
:10296000FDF762FC092206490648FFF7EBFE10BCA2
:102970005DF814FB2325303364505241442100009C
:1029800088000020040100202DE9F0410120344995
:102990000870002033490870334888603348C860A5
:1029A00040F67600488040F24230888040F2DC50A9
:1029B000088349882B4A9288881A00F02BFE054626
:1029C000284AD168906800F06FFF06462549098BB8
:1029D000A1F2DC5000F01EFE0746314600F066FE14
:1029E0000446294600F034FD1E49C8610846C06906
:1029F00048610846008B088201201D4908701A486A
:102A000088600020C86040F67600488040F2DC50C4
:102A1000888008834988164A9288881A00F0FAFD4F
:102A20000546134AD168906800F03EFF06461049FB
:102A3000098BA1F2DC5000F0EDFD0746314600F0B5
:102A400035FE0446294600F003FD0949C8610846E1
:102A5000C06948610846008B0882BDE8F08100002B
:102A60000000002018000020ECD1B342ECD1B3C22A
:102A7000500000200FB42DE9F04F8BB0229D284666
:102A8000179900F0DFFD01D2179807E02846169944
:102A900000F0D8FE01D2169800E028460646DDE98F
:102AA000160100F001FF0A90BDF85210BDF8542045
:102AB000881A00F0AFFD82461149304600F05AFCFA
:102AC0008346514600F0F2FD81460A9900F0C0FCB1
:102AD00080460C4900F04EFC074600F07BFD84B2B6
:102AE000282218A968460A94FDF7BFFC14A80FC84D
:102AF00000F00AF80BB0BDE8F00F5DF814FB000021
:102B0000000007430000FA430FB410B5109CBDF855
:102B10000C00A04202DDBDF80C0007E0BDF80A0081
:102B2000A04202DABDF80A0000E0204603469DF804
:102B3000082006A10A48FDF777FB0F22084909483B
:102B4000FFF700FE10BC5DF814FB000023253033B6
:102B5000645025303464543035303021000000009A
:102B6000880000200401002010B5FEF7FBFB10BD1B
:102B700000B58FB0282105A8FDF7A9FC14216846EF
:102B8000FDF7A5FC012005900004069000200790A9
:102B90000120099002200C90C1030D914FF4E01127
:102BA0000E9105A8FEF7D4FD08B1FDF7C4FE0F2075
:102BB000009002200190002002904FF4806003906A
:102BC0000020049002216846FEF79EFC08B1FDF744
:102BD000B2FE0FB000BD704710B50248FFF779F99B
:102BE00010BD0000BC00002010B50268204B9842C8
:102BF0000ED0204B98420BD0B0F1804F08D01E4B26
:102C0000984205D01D4B984202D01D4B984203D1EB
:102C100022F070024B681A43154B98420ED0154BA8
:102C200098420BD0B0F1804F08D0134B984205D09A
:102C3000124B984202D0124B984203D122F44072B8
:102C4000CB681A4322F080034C6943EA0402026015
:102C50008B68C3620B688362054B984202D0054BB8
:102C6000984201D10B6903630123436110BD000049
:102C7000002C0140003401400004004000080040E6
:102C8000000C004030B50C46816821F47F4142EAD7
:102C9000032525432943816030BD0A46816821F020
:102CA000700142F0070319438160704730B50B464D
:102CB0001446026A056A25F001050562816921F062
:102CC000F00141EA041122F00A021A438161026212
:102CD00030BD30B50B461446026A056A25F0100572
:102CE0000562816921F4704141EA043122F0A002B9
:102CF00042EA03128161026230BD70B505466C6A1A
:102D00000020E085E0842046FFF73CFA70BD70B5F6
:102D100006460025746A20684069C0F3C01594F81F
:102D20004100212805D125B10020E084204600F093
:102D3000FBF820684069C0F3801594F8420022280F
:102D400005D125B10020E085204600F0A7F8606C91
:102D500040F0100060642046FFF714FA70BD70B5B3
:102D600005466C6A2868006800F02000002842D1FF
:102D7000E08500BF00BF21680C3151E8001F21F43D
:102D8000807021680C3141E80002002AF3D100BFB5
:102D900000BF00BF2168143151E8001F21F001007D
:102DA0002168143141E80002002AF3D100BF00BFBE
:102DB00000BF2168143151E8001F21F04000216854
:102DC000143141E80002002AF3D100BF202084F82A
:102DD0004200206B01280ED100BF00BF21680C31DA
:102DE00051E8001F21F0100021680C3141E8000279
:102DF000002AF3D100BF00206063206B012804D1BA
:102E0000A18D2046FFF7BDF902E02046FFF712FC36
:102E100070BD70B505466C6A01206063206B0128A7
:102E200005D1A08D41082046FFF7ABF902E020460E
:102E3000FFF786FC70BD70B505466C6A28680068AF
:102E400000F02000F8B90020E08400BF00BF216836
:102E5000143151E8001F21F080002168143141E84D
:102E60000002002AF3D100BF00BF00BF21680C316F
:102E700051E8001F41F0400021680C3141E8000298
:102E8000002AF3D102E02046FFF7A2FC70BD70B526
:102E90000446656A2846FFF79CFC70BD00BF00BF72
:102EA00002680C3252E8002F22F4907102680C3252
:102EB00042E80013002BF3D100BF00BF00BF02683F
:102EC000143252E8002F22F001010268143242E865
:102ED0000013002BF3D100BF016B01290ED100BFFD
:102EE00000BF02680C3252E8002F22F01001026885
:102EF0000C3242E80013002BF3D100BF202180F8F0
:102F0000421000210163704710B504462068C06874
:102F100020F040002168C860202084F8410020464D
:102F2000FFF756FC002010BD00BF00BF02680C3246
:102F300052E8002F22F0C00102680C3242E8001370
:102F4000002BF3D100BF202180F841107047F8B565
:102F5000044694F84200222875D1A068B0F5805F3D
:102F60000CD1206950B90025A66A20684068C0F3DA
:102F700008003080A06A801CA06215E0A56A0026C7
:102F8000A068B0F5805F03D0A06828B9206918B99F
:102F900020684068287004E02068406800F07F00E6
:102FA0002870A06A401CA062E08D401E80B2E085BF
:102FB000002846D12068C06820F020002168C86041
:102FC0002068C06820F480702168C860206840696B
:102FD00020F0010021684861202084F84200002090
:102FE0006063206B012826D10020206300BF00BF52
:102FF00021680C3151E8001F21F0100021680C31CC
:1030000041E80002002AF3D100BF2068006800F008
:10301000100010280AD100BF00200090206800682E
:10302000009020684068009000BF00BFA18D20463E
:10303000FFF7A7F802E02046FFF7FCFA0020F8BDF2
:1030400001E00020FBE70220F9E7000070B504462C
:103050002168096921F44051E26811432268116135
:103060002269A1681143626941EA02052168C968C1
:1030700041F20C62914329432268D1602168496979
:1030800021F44071A2691143226851612D4A2168DF
:10309000914202D1FEF714FB01E0FEF701FB00EBC9
:1030A000C00101EB001162689200B1FBF2F100EB8C
:1030B000C00202EB001263689B00B2FBF3F26423D0
:1030C000B2FBF3F202EBC20303EB0212A1EB8201AB
:1030D000322202EB01116422B1FBF2F101F0F001A6
:1030E00000EBC00202EB001263689B00B2FBF3F23C
:1030F0006423B2FBF3F201EB021200EBC00101EB1F
:10310000001163689B00B1FBF3F100EBC00303EB1C
:1031100000136668B600B3FBF6F36426B3FBF6F360
:1031200003EBC30606EB0313A1EB8301322303EB8E
:1031300001116423B1FBF3F101F00F011144226886
:10314000916070BD0038014077B581B004461546E6
:103150000298A062A58500206064222084F84200C5
:103160002848E16B88622848E16BC8622748E16B18
:1031700008630020E16B486302AE32682368191DC2
:103180002B46E06BFDF7FAFE00BF002000902068A0
:103190000068009020684068009000BF00BF206970
:1031A00070B100BF00BF21680C3151E8001F41F42D
:1031B000807021680C3141E80002002AF3D100BF81
:1031C00000BF00BF2168143151E8001F41F0010029
:1031D0002168143141E80002002AF3D100BF00BF8A
:1031E00000BF2168143151E8001F41F04000216800
:1031F000143141E80002002AF3D100BF002004B0DE
:1032000070BD00005F2D0008132E00080F2D000870
:10321000014691F84100212828D18868B0F5805FE7
:103220000BD1086948B90A6A1088C0F308000B6816
:103230005860086A801C086205E00B6A581C086226
:1032400018780B685860C88C401E80B2C88458B982
:103250000868C06820F080000B68D8600868C06803
:1032600040F040000B68D860002070470220FCE767
:1032700010B50248FEF788FF10BD000004010020D1
:1032800000BFFEE702480068C0F30220704700005C
:103290000CED00E010B5002804DB0A07130E054A08
:1032A000135406E00A07140E034A00F00F031B1F15
:1032B000D45410BD00E400E018ED00E030380A28D6
:1032C00001D201207047002070470000FEF756F839
:1032D000FFF74EFCFFF7A2FAFFF77EFAFFF702FBBB
:1032E000FFF7C8FAFFF750FB0FA11248FCF79CFF4D
:1032F0000F2210491048FFF725FA1048FEF71AFD73
:1033000001220F490C48FFF77FF90CE00C480A3006
:10331000FDF714FB0A49213908820A48FDF70EFB24
:1033200008492B390882F1E7233030315053434BA1
:10333000210000008800002004010020BC000020C3
:10334000390000207B00002010B500290AD0087841
:10335000002807D005487844FDF77CFA002801D002
:10336000002010BD0248784410BD00009A060000FD
:103370009206000090EA010F48BF81F0004100F181
:103380009A82421A3CBF801A89184FEAD0524FF0F5
:103390007F4C1CEA410FA2EBD15318BF9CEA026F8D
:1033A00000F03B804FF0004C4CEA00204CEA012139
:1033B00021FA03FC10EB0C0C1ED202F1FF325FEA83
:1033C0001C2040EBC25038BF70471CF07F0F4FEA03
:1033D000400C18BFBCF17F4F38BF7047C3F12003CA
:1033E000994008BF20F00100BCF17F4F38BF704703
:1033F000A0F1C04000F021BA4FEA3C00000A40EBC7
:10340000C25028BF1CF0FF0F4FEA400CE6D018BF97
:10341000BCF17F4F38BF7047EAE79CEA026F05D0E6
:1034200010EA5C0F08BF00F00040704710B500F0D4
:10343000BEF900BF64FBBE3E401058BFC0F1404023
:10344000491058BFC1F140418142EFF300807047FD
:103450004FF47F0C1CEAD0121EBF1CEAD11392EA73
:103460000C0F93EA0C0F00F0858090EA010F48BF23
:1034700042F4807240F4000C41F400002CF07F41D3
:1034800020F07F4000B58142A2EB03020FF2081C3E
:10349000ACEB504EC0F100009EF800E04FEA4E0E3B
:1034A00000FB0EFC38BF49004FEA2C1C02F5FA0263
:1034B0000CFB0EF34FEACE1E4FEA112C4FEAC1214E
:1034C0000EEB635E42EB22420EFB0CFC4FEA1C53F8
:1034D00000FB03114FEA112C4FEA01310EFB0CFCEB
:1034E0004FEADC4C00FB0C11C14228BF09184CEB21
:1034F00003335DF804EB10EB410143EBC250B2F52E
:103500007C0F38BF704729D512F0F00F1CBF00F1B7
:10351000C04000F000407047008182838485868728
:1035200088898B8C8D8E8F919293959697999A9C82
:103530009D9FA0A2A3A5A7A8AAACAEB0B2B3B5B7F1
:10354000B9BCBEC0C2C5C7C9CCCED1D4D7D9DCDFC7
:10355000E2E6E9ECF0F3F7FAFE0000004FEA400C77
:103560000CF1807CBCF17E4F28BF7047B0F1C040A9
:1035700000F063B990EA010F0CEAD11348BF42F49E
:103580008072624538BF634507D213F47F0F16D0AF
:1035900080EA010000F00040704710B500F007F924
:1035A000097EFC3E00F005B880EA010000F0004012
:1035B000704780EA010000F0004000F03EB912F4CC
:1035C0007F0F04BF0248704780EA010000F035B960
:1035D0000000C07FC10DD1F19E0206DB4FEA00233F
:1035E00043F0004323FA02F07047004207D54FEA48
:1035F0004001B1F1FE4F02D24FF00000704710B50C
:1036000000F0D5F849922480002070476FEA20002E
:103610007047000010F0004148BF4042B0FA80F30C
:1036200010FA03F2C3F19D030BD051EAC35101EB31
:103630001220530638BF704700F1010008BF20F088
:103640000100704750EA010C00F113801CF5000FD7
:1036500058BFBCF5000F01D48842704707D710F55A
:10366000000F58BF11F5000F15D4884270478942EA
:1036700070471CF5000F04D5BCF5000FF7D581424B
:1036800070474FF0807C1CEB400F38BF1CEB410FA4
:1036900001D28142704710B500F089F892244900A8
:1036A0004FF000504FF08051FFF7C6BE4FF47F0C33
:1036B0001CEAD0121EBF1CEAD11392EA0C0F93EA47
:1036C0000C0F00F0478090EA010F48BF42F480726F
:1036D0004FF0004C4CEA00204CEA012102EB0302BF
:1036E000A0FB0113A2F50002002918BF43F001035B
:1036F0005B0028BF4FEA330342EB22425FEA132C00
:103700004CEBC2502EBFBCEB436FB2F57C0F704741
:103710004FEA036CBCF1004F08BF20F00100B2F586
:103720007C0F38BF70470BD582F0FF0212F5803F47
:10373000C8BF704700F1C040D8BF00F000407047DC
:1037400000F5000C5FEA4C0C48BF7047B0F1C04078
:1037500000F073B890EA010F0CEAD11348BF42F4AD
:103760008072624538BF634504D280EA010000F0F0
:103770000040704710B500F01AF800BF8900013E04
:1037800000F007B800F009B85FEA410C5FEA1C6C72
:1037900008D080EA010000F050B85FEA400C5FEA10
:1037A0001C6CF6D14FF00040A0F5800070470EF180
:1037B000020E2EF0030E5EF8044B244204D44FEAAE
:1037C0004102B2F17F4F11D84FEA4003B3F17F4F6E
:1037D0000CD80ED14FEAD07CB2F17F4F0CEB4C0CE1
:1037E0000CF1020C08BF4CEBD17C04E04FF0080C4C
:1037F00001E04FEAD17C0CEB4C0324FA03F404F013
:103800000704B4F1040C06D20EEB840CBDE81040A2
:103810004CF0010C6047DFE80CF0070802024FF0A3
:103820000040A0F5800010BD0846420018BFD2F14C
:10383000807288BF00F0004010BDFF2141EAD050E7
:10384000C005704751EA000C00F113801CF5000F11
:1038500058BFBCF5000F01D48142704707D711F55E
:10386000000F58BF10F5000F15D4814270478942F0
:1038700070471CF5000F04D5BCF5000FF7D5884242
:1038800070474FF0807C1CEB410F38BF1CEB400FA2
:1038900001D28842704780EA010081EA000180EA93
:1038A0000100FFF7F8BE000090EA010F48BF81F069
:1038B00000413FF566AD421A04D882F00042A0EB09
:1038C000020011444FEAD0524FF07F4C1CEA410FE6
:1038D000A2EBD15318BF9CEA026F4AD04FF0004CC4
:1038E0004CEA00204CEA012121FA03FCB0EB0C0C5D
:1038F0000FD412F0FE0F36D05FEA4C001DD5001237
:1039000040EBC25038BF70471CF03F0F18BF7047E4
:103910000BE0A2F101025FEA1C2040EBC25038BF6D
:1039200070471CF07F0F18BF7047C3F12003994008
:1039300014BF401E20F00100704780084FEA122398
:1039400008BF7047B0FA80FCA2EB0C02CCF1280C47
:1039500060FA0CF093EA122F04BF00EBC2507047DC
:103960004FEAC3707047130A5FEADC1008BF704764
:10397000F6E79CEA026F04D010EA5C0F08BF002053
:10398000704710B5FFF713FF40DFF63E81F00040AF
:10399000704702030405060708090A0B0C0D0E0FF9
:1039A00010100102000000000000000001020304EA
:1039B00006070809000000000102030404000008D3
:1039C00000000000000000020001000010000000E4
:1039D000003B000800000020180000006C010008F7
:1039E000183B00081800002020080000880100088B
:1039F0001001000043000000F8FFFFFF00404040BE
:103A000040404040404041414141414040404040B1
:103A1000404040404040404040404040400502025D
:103A2000020202020202020202020202022020201C
:103A30002020202020202002020202020202909078
:103A40009090909010101010101010101010101076
:103A500010101010101010100202020202028888CA
:103A600088888888080808080808080808080808D6
:103A700008080808080808080202020240000000BE
:103A80000000000000000000000000000000000036
:103A90000000000000000000000000000000000026
:103AA0000000000000000000000000000000000016
:103AB0000000000000000000000000000000000006
:103AC00000000000000000000000000000000000F6
:103AD00000000000000000000000000000000000E6
:103AE00000000000000000000000000000000000D6
:103AF00000000000000000000000000000000000C6
:103B000000000000000000000000000010000000A5
:083B1000010000000024F40094
:0400000508000131BD
:00000001FF
